:100000000C9437000C945F000C945F000C945F001C
:100010000C945F000C945F000C945F000C945F00E4
:100020000C945F000C945F000C945F000C945F00D4
:100030000C945F000C945F000C945F000C945F00C4
:100040000C94EF040C945F000C949A030C94DD0361
:100050000C945F000C945F000C945F000C945F00A4
:100060000C945F000C945F006F00990475001124DC
:100070001FBECFEFD8E0DEBFCDBF11E0A0E0B1E002
:10008000E0EBFFE002C005900D92AA34B107D9F76A
:1000900022E0AAE4B1E001C01D92A830B207E1F766
:1000A00010E0CCE6D0E004C02297FE010E94C70712
:1000B000C836D107C9F70E94FB020C9490070C9434
:1000C000000040E855E260E070E081E591E00E94C8
:1000D000180460E071E081E591E00C94580168E358
:1000E00071E08AE491E00C9420028AE491E00C949F
:1000F000B201CF93DF93CDB7DEB727970FB6F89451
:10010000DEBF0FBECDBF81E591E00E940803892BC1
:1001100031F161E571E0CE0101960E949801BE01C6
:100120006F5F7F4F8AE491E00E943702CE01019613
:100130000E94B20129E030E044E050E06AE471E05E
:10014000CE0101960E94B602BE016F5F7F4F81E52E
:1001500091E00E944601CE0101960E94B2012796CD
:100160000FB6F894DEBF0FBECDBFDF91CF910895DB
:10017000CF92DF92EF92FF920F931F93CF93DF9373
:100180006C017A01EB01E60EF71E00E010E0CE15DF
:10019000DF0561F06991D601ED91FC910190F0814C
:1001A000E02DC6010995080F191FF1CFC801DF9195
:1001B000CF911F910F91FF90EF90DF90CF90089516
:1001C0006115710581F0DB010D900020E9F7AD01AB
:1001D00041505109461B570BDC01ED91FC91028007
:1001E000F381E02D099480E090E00895AF92BF92F2
:1001F000CF92DF92EF92FF920F931F93CF93DF93F3
:100200007C016B01C0E0D0E000E010E0D601149664
:100210008D919C911597C817D90788F4D701ED9156
:10022000FC91A080B180BE01C6010E94A502682F8A
:10023000C701F5010995080F191F2196E7CFC801DD
:10024000DF91CF911F910F91FF90EF90DF90CF90B2
:10025000BF90AF900895DC01ED91FC910190F08189
:10026000E02D09940F931F93CF93DF93EC016DE082
:100270000E942B018C016AE0CE010E942B01800FAD
:10028000911FDF91CF911F910F9108950F931F93AD
:10029000CF93DF93EC010E94F6008C01CE010E9407
:1002A0003201800F911FDF91CF911F910F9108951F
:1002B0000F931F93CF93DF93EC010E94E0008C011A
:1002C000CE010E943201800F911FDF91CF911F91CB
:1002D0000F9108950F931F93CF93DF93EC010E942A
:1002E0003905688779878A879B87E881F981068045
:1002F000F781E02DCE01099597FF15C00E943905C1
:10030000088519852A853B85601B710B820B930B31
:100310000C811D812E813F81601771078207930731
:1003200020F38FEF9FEFDF91CF911F910F910895F1
:100330000F931F93CF93DF93EC018B0168E371E080
:100340000E942002C8010E946A0197FD05C0682F23
:10035000CE010E949202F6CFCE01DF91CF911F9184
:100360000F910895FC01808191810C940107CF9336
:10037000DF93EC0188819981009711F00E940107B9
:10038000198218821D821C821B821A82DF91CF91F2
:1003900008950F931F93CF93DF93EC018B016F5F51
:1003A0007F4F888199810E948005009731F0998361
:1003B00088831B830A8381E001C080E0DF91CF91B5
:1003C0001F910F910895CF93DF93EC01888199815C
:1003D000892B29F08A819B818617970760F4CE01CB
:1003E0000E94C901882341F08C819D81892B19F4D9
:1003F000E881F981108281E0DF91CF910895EF9239
:10040000FF920F931F93CF93DF93EC017B018A013F
:10041000BA010E94E301811104C0CE010E94B7011C
:1004200007C01D830C83B701888199810E949C07B6
:10043000CE01DF91CF911F910F91FF90EF90089522
:10044000FC0111821082138212821582148216829C
:100450006115710559F0FB0101900020E9F7AF012A
:1004600041505109461B570B0C94FF010895CF933F
:10047000DF93EC01FB018617970761F060817181C2
:100480006115710529F0448155810E94FF0102C068
:100490000E94B701CE01DF91CF910895CF93DF93F2
:1004A000EC016115710561F0FB0101900020E9F795
:1004B000AF0141505109461B570B0E94FF0102C07A
:1004C0000E94B701CE01DF91CF910895EF92FF9284
:1004D0000F931F93CF93DF93EC017B010C811D8160
:1004E0006115710511F480E016C04115510591F0B8
:1004F000040F151FB8010E94E3018823A1F328818E
:1005000039818C819D81B701820F931F0E949C07C6
:100510001D830C8381E0DF91CF911F910F91FF909C
:10052000EF900895CF93DF9300D0CDB7DEB7698306
:100530001A8241E050E0BE016F5F7F4F0E94660269
:100540000F900F90DF91CF910895FC0124813581A8
:100550006217730748F480819181009729F0FC01AC
:10056000E60FF71F8081089580E00895BF92CF9233
:10057000DF92EF92FF920F931F93CF93DF936C0163
:100580007B01EA0189012417350720F48D2FE90149
:10059000042F182F68E371E0C6010E942002D701E2
:1005A00014968D919C9115978C179D07C8F0801714
:1005B000910708F48C01D701ED91FC911197E00FA0
:1005C000F11FB08010826D917C916C0F7D1FC60170
:1005D0000E944E02D701ED91FC91E00FF11FB08215
:1005E000C601DF91CF911F910F91FF90EF90DF90A7
:1005F000CF90BF9008950E9445050E946100C4ED10
:10060000D3E00E9479002097E1F30E94D403F9CF50
:10061000FC0124853585F901E05CFF4F80819181E3
:10062000329620813181821B930B8F739927089515
:10063000FC0184859585FC01E05CFF4F4081518180
:100640003296208131814217530741F00190F081A9
:10065000E02DE80FF91F808190E008958FEF9FEF64
:100660000895FC0184859585FC01E05CFF4F408185
:1006700051813296208131814217530779F0A08150
:10068000B181A80FB91F8C91208131812F5F3F4F1D
:100690002F7333273183208390E008958FEF9FEFEE
:1006A0000895FC0181A1882329F0A489B5898C9142
:1006B00086FFFBCF11A20895CF93DF93FC0126851F
:1006C0003785D901A05CBF4F8D919C911197019600
:1006D0008F739927E901CE5BDF4F488159818417D9
:1006E0009507D9F30D90BC91A02DA20FB31F6C9369
:1006F000A685B785A05CBF4F11969C938E93A68963
:10070000B7892C9181E090E0078C02C0880F991F77
:100710000A94E2F7282B2C9381E081A30488F589C1
:10072000E02D80818064808381E090E0DF91CF9133
:10073000089508951F920F920FB60F9211242F93D0
:100740003F934F938F939F93EF93FF938091C000BC
:1007500082FD1CC04091C6008091F7019091F80184
:1007600001968F7399272091F9013091FA01821730
:10077000930771F0E091F701F091F801E954FE4F11
:1007800040839093F8018093F70102C08091C600E6
:10079000FF91EF919F918F914F913F912F910F90EA
:1007A0000FBE0F901F90189581E591E00E940803FD
:1007B000892B11F00C94990308951F920F920FB694
:1007C0000F9211242F933F938F939F93EF93FF9357
:1007D0002091B3013091B4018091B5019091B6019F
:1007E0002817390731F48091C1008F7D8093C100B3
:1007F00014C0E091B501F091B601ED58FE4F208193
:100800008091B5019091B60101968F7399279093CD
:10081000B6018093B5012093C600FF91EF919F919F
:100820008F913F912F910F900FBE0F901F901895B1
:10083000CF92DF92EF92FF92CF93DF93EC016A01A8
:100840007B01411581EE580761057105F9F0EC89CE
:10085000FD8981E090E008A002C0880F991F0A94EA
:10086000E2F7808360E079E08DE390E0A7019601F4
:100870000E94A30721503109410951095695479516
:1008800037952795211580E1380798F0EC89FD8987
:10089000108260E874E88EE190E0A70196010E9462
:1008A000A3072150310941095109569547953795BC
:1008B0002795E889F9893083EA89FB89208319A281
:1008C000EE89FF89408181E090E09C010C8C02C0A0
:1008D000220F331F0A94E2F7422B4083EE89FF89EF
:1008E00040819C010D8C02C0220F331F0A94E2F755
:1008F000422B4083EE89FF8940819C010E8C02C00F
:10090000220F331F0A94E2F7422B4083EE89FF89BE
:1009100020810F8C02C0880F991F0A94E2F78095FE
:1009200082238083DF91CF91FF90EF90DF90CF9073
:100930000895109254011092530188EE93E0A0E0C4
:10094000B0E08093550190935601A0935701B09366
:1009500058018DE391E0909352018093510187EB10
:1009600091E090935E0180935D0183E791E0909325
:10097000600180935F0185EC90E090936201809329
:10098000610184EC90E0909364018093630180ECBA
:1009900090E0909366018093650181EC90E09093E4
:1009A00068018093670182EC90E090936A018093E4
:1009B000690186EC90E090936C0180936B0184E078
:1009C00080936D0183E080936E0187E080936F01D7
:1009D00085E08093700181E08093710108951F92FA
:1009E0000F920FB60F9211242F933F938F939F93E3
:1009F000AF93BF938091FC019091FD01A091FE0106
:100A0000B091FF013091FB0123E0230F2D3720F43B
:100A10000196A11DB11D05C026E8230F0296A11D58
:100A2000B11D2093FB018093FC019093FD01A093E5
:100A3000FE01B093FF018091000290910102A0910C
:100A40000202B09103020196A11DB11D8093000224
:100A500090930102A0930202B0930302BF91AF9161
:100A60009F918F913F912F910F900FBE0F901F90EC
:100A700018952FB7F8946091FC017091FD01809159
:100A8000FE019091FF012FBF0895789484B5826094
:100A900084BD84B5816084BD85B5826085BD85B522
:100AA000816085BDEEE6F0E0808181608083E1E8D1
:100AB000F0E0108280818260808380818160808309
:100AC000E0E8F0E0808181608083E1EBF0E080810C
:100AD00084608083E0EBF0E0808181608083EAE7DE
:100AE000F0E0808184608083808182608083808167
:100AF000816080838081806880831092C100089526
:100B00006F927F928F929F92AF92BF92CF92DF921D
:100B1000EF92FF920F931F93CF93DF93EC01CB01E2
:100B2000209781F4DF91CF911F910F91FF90EF906B
:100B3000DF90CF90BF90AF909F908F907F906F90FD
:100B40000C946906FE01E60FF71F9E012250310941
:100B5000E217F30708F4ACC0D9010D911C9111976D
:100B600006171707B8F00530110508F49FC0A80153
:100B7000445051094617570708F498C0025011090C
:100B8000061B170B019311936D937C93CF010E9469
:100B900001078CC05B01A01AB10A4E01800E911EA4
:100BA000A0910602B0910702612C712C60E070E008
:100BB000109709F449C0A815B905C9F5ED90FC9046
:100BC0001197670142E0C40ED11CCA14DB0478F10E
:100BD00047018A189B08640142E0C40ED11C12969A
:100BE000BC9012971396AC91B5E0CB16D10440F0AF
:100BF000B282A38391828082D9018D939C9309C094
:100C00000E5F1F4F0E0D1F1DF90111830083EB2D89
:100C1000FA2F6115710531F0DB011396FC93EE9309
:100C2000129744C0F0930702E09306023FC06D9113
:100C30007C9111976616770608F43B01BD01129668
:100C40000D90BC91A02DB4CF60910402709105026B
:100C500068157905E9F468167906D0F440913201F7
:100C6000509133014115510541F44DB75EB7609184
:100C7000360170913701461B570BE417F507C0F496
:100C8000F0930502E0930402F901918380830EC082
:100C90000E9469067C01009759F0A801BE010E94DC
:100CA0009307CE010E940107C70104C0CE0102C014
:100CB00080E090E0DF91CF911F910F91FF90EF9036
:100CC000DF90CF90BF90AF909F908F907F906F906C
:100CD0000895CF93DF938230910510F482E090E085
:100CE000E0910602F091070220E030E0A0E0B0E0E1
:100CF000309739F14081518148175907B8F04817AA
:100D0000590771F482819381109729F013969C936F
:100D10008E9312972CC0909307028093060227C0EF
:100D20002115310531F04217530718F0A901DB01F5
:100D300001C0EF019A01BD01DF010280F381E02DC6
:100D4000D7CF21153105F9F0281B390B2430310597
:100D500080F48A819B816115710521F0FB019383E9
:100D6000828304C09093070280930602FE013296AC
:100D700044C0FE01E20FF31F819391932250310989
:100D8000398328833AC02091040230910502232B35
:100D900041F42091340130913501309305022093C4
:100DA000040220913201309133012115310541F4C3
:100DB0002DB73EB74091360150913701241B350BBA
:100DC000E0910402F0910502E217F307A0F42E1B54
:100DD0003F0B2817390778F0AC014E5F5F4F24179F
:100DE000350748F04E0F5F1F5093050240930402F1
:100DF0008193919302C0E0E0F0E0CF01DF91CF91C9
:100E00000895CF93DF93009709F487C0FC013297D0
:100E100013821282C0910602D0910702209781F4BA
:100E200020813181280F391F8091040290910502A1
:100E30008217930779F5F0930502E09304026DC0E1
:100E4000DE0120E030E0AE17BF0750F412964D915E
:100E50005C9113979D014115510509F1DA01F3CF1A
:100E6000B383A28340815181840F951F8A179B070A
:100E700071F48D919C911197840F951F0296918327
:100E8000808312968D919C91139793838283211571
:100E9000310529F4F0930702E09306023EC0D90120
:100EA0001396FC93EE9312974D915D91A40FB51F8D
:100EB000EA17FB0779F480819181840F951F0296D0
:100EC000D90111969C938E938281938113969C9362
:100ED0008E931297E0E0F0E08A819B81009719F0F1
:100EE000FE01EC01F9CFCE01029628813981820FF3
:100EF000931F20910402309105022817390769F4E5
:100F0000309729F4109207021092060202C0138251
:100F10001282D0930502C0930402DF91CF9108950D
:100F2000F8940C94CB07FB01DC0102C001900D92F8
:100F300041505040D8F70895FB01DC0101900D921B
:100F40000020E1F70895A1E21A2EAA1BBB1BFD01A8
:100F50000DC0AA1FBB1FEE1FFF1FA217B307E40798
:100F6000F50720F0A21BB30BE40BF50B661F771FF0
:100F7000881F991F1A9469F76095709580959095D0
:100F80009B01AC01BD01CF010895EE0FFF1F05903D
:100F9000F491E02D099410E0CCE6D0E004C0FE010D
:100FA0000E94C7072296CE36D107C9F7F894FFCF23
:100FB000506C656173652074656C6C206D65207381
:100FC000706565640A000000000000000000000079
:100FD0000000000000000000000000000000000011
:100FE000000000000802800000000000005C03B860
:0A0FF0000008033103180351030049
:00000001FF
